S00C0000524550532E73726563DE
S214400000702B4020792240002923400029234000BD
S21440001029234000292340002923400000000000F7
S21440002000000000000000000000000029234000FF
S21440003029234000000000002923400029234000D7
S214400040292340002923400029234000292340003B
S214400050292340002923400029234000292340002B
S2144000602923400000000000AD154000C5154000A3
S214400070DD15400029234000652B40002923400021
S214400080F51540000D164000292340002923400066
S21440009029234000292340002923400029234000EB
S2144000A09D2B40002923400029234000292340005F
S2144000B029234000292340002923400029234000CB
S2144000C029234000292340002923400029234000BB
S2144000D000000000292340000000000029234000C3
S2144000E0292340002923400029234000292340009B
S2144000F0292340002923400029234000292340008B
S214400100292340002923400029234000292340007A
S214400110292340000000000000000000000000000E
S214400120292340002923400029234000292340005A
S21440013029234000000000002923400029234000D6
S21440014010B5054C237833B9044B13B10448AFF3CC
S21440015000800123237010BDB40940200000000039
S214400160E49840000C4B43B10C480D4910B5AFF332
S21440017000800C48036823B910BD0A48036833B9A9
S2144001807047094B002BF7D0BDE810401847064B88
S214400190002BF5D0184700BF00000000E498400050
S2144001A0B8094020E49840000000000080B483B0C6
S2144001B000AF78607B68072B25D801A252F823F061
S2144001C0E1014000E7014000ED014000F30140003E
S2144001D0F7014000FB014000FF01400003024000E1
S2144001E04FF4FA4310E04FF400430DE04FF4004361
S2144001F00AE0084B08E0084B06E0084B04E0074BD3
S21440020002E0064B00E0002318460C37BD465DF87A
S214400210047B704700093D0000127A00001BB700BF
S21440022080B500AF0620054B9847024613469B0014
S21440023013449A001344184680BD00BFAD014000E9
S21440024080B500AF024B984703465B08184680BD12
S2144002502102400080B582B000AF78607868034BDA
S214400260984700BF0837BD4680BD00BFE91840002C
S21440027080B582B000AF78600B46FB707B68364A2C
S21440028093420AD100BFFB7819467868334B9847AB
S2144002900346002BF7D101235AE07B68304A93424D
S2144002A00AD100BFFB78194678682C4B984703461E
S2144002B0002BF7D101234BE07B682A4A93420AD1B0
S2144002C000BFFB7819467868244B98470346002BB6
S2144002D0F7D101233CE07B68234A93420AD100BF12
S2144002E0FB78194678681D4B98470346002BF7D194
S2144002F001232DE07B681D4A93420AD100BFFB785C
S214400300194678681A4B98470346002BF7D10123C5
S2144003101EE07B68174A93420AD100BFFB78194615
S2144003207868134B98470346002BF7D101230FE01C
S2144003307B68114A93420AD100BFFB781946786819
S2144003400B4B98470346002BF7D1012300E00023D0
S21440035018460837BD4680BD00080E40ED1E4000DA
S214400360000A0E40001A0E40001C0E40004002409C
S214400370692140000080024000C0024080B584B041
S21440038000AF786039600023FB607B68344A934254
S21440039007D100BF39687868324B98470346002B30
S2144003A0F8D17B68304A934207D100BF39687868F5
S2144003B02C4B98470346002BF8D17B682B4A934238
S2144003C007D100BF39687868264B98470346002B0C
S2144003D0F8D17B68264A934207D100BF39687868CF
S2144003E0204B98470346002BF8D17B68214A93421E
S2144003F00DD100BF07F10C03194678681E4B98478D
S2144004000346002BF6D1FB68DAB23B681A707B686D
S2144004101A4A93420DD100BF07F10C03194678687B
S214400420154B98470346002BF6D1FB68DAB23B687B
S2144004301A707B68124A93420DD100BF07F10C0335
S214400440194678680C4B98470346002BF6D1FB6854
S214400450DAB23B681A7000BF1037BD4680BD00BF99
S21440046000080E401D1F4000000A0E40001A0E40B5
S214400470001C0E40004002409B214000008002408D
S21440048000C0024080B586B000AF0B20194B98479D
S21440049001224FF0C0511848184B984702224FF09F
S2144004A0C0511548154B98473B4600221A605A6083
S2144004B09A60DA601A615A614FF416533B60C02363
S2144004C07B604FF40063BB600D200A4B98470C4B93
S2144004D0984702463B4619460A480B4B98470948F8
S2144004E00A4B984707480A4B984700BF1837BD46FF
S2144004F080BD00BF5502400000100E40691140000C
S21440050041024000004002402D204000B120400003
S214400510E520400080B584B000AF78600023FB60E3
S21440052010E0FB685A1CFA607A6813441B78194638
S2144005300A480B4B984700BF08480A4B9847034663
S214400540002BF9D07A68FB6813441B78002BE8D15F
S214400550FB6818461037BD4680BD00BF00400240CD
S21440056071024000C71E400080B584B000AF78607E
S2144005700023FB607A68FB68134419460F48104B0B
S214400580984709E0FB680133FB607A68FB681344D0
S21440059019460A480A4B98477A68FB6813441B7802
S2144005A00A2BEFD1FB6801337A68134400221A7095
S2144005B0FB6818461037BD4680BD00BF004002406D
S2144005C07D03400080B483B000AF78607B68072B23
S2144005D025D801A252F823F0F9054000FF05400057
S2144005E0050640000B0640000F064000130640007C
S2144005F0170640001B0640004FF4FA4310E04FF445
S21440060000430DE04FF400430AE0084B08E0084B77
S21440061006E0084B04E0074B02E0064B00E00023F0
S21440062018460C37BD465DF8047B704700093D0010
S21440063000127A00001BB70080B500AF0620054BBD
S2144006409847024613469B0013449A0013441846A4
S21440065080BD00BFC505400080B500AF024B98473F
S2144006600346184680BD00BF3906400080B584B0BA
S21440067000AF1320084B9847084B984703467B60CB
S21440068049F64043BB603B1D19460548054B984715
S21440069000BF1037BD4680BDE918400059064000EF
S2144006A000800140E51A400080B588B000AF3A604F
S2144006B01A460346FB710B46BB7113467B710023FB
S2144006C0FB61FB793B76BB793B720123FB603B6861
S2144006D03B617B797B6107F1080319460548064B69
S2144006E098470346FB61FB695BB218462037BD4618
S2144006F080BD00BF00800140751D400080B588B0B9
S21440070000AF3A601A460346FB710B46BB71134670
S2144007107B710023FB61FB793B76BB793B720123FF
S214400720FB603B683B617B797B6107F108031946B8
S21440073009480A4B98470346FB6107F108031946E8
S2144007400548064B98470346FB61FB695BB2184673
S2144007502037BD4680BD00BF008001408D1C400054
S21440076080B582B000AF78607B68072B31D801A295
S21440077052F823F0D1074000950740009D074000FF
S214400780A5074000AD074000B5074000BD07400044
S214400790C70740000020114B98471AE001200F4B36
S2144007A0984716E000200E4B984712E010200C4B5E
S2144007B098470EE020200A4B98470AE03E2100204A
S2144007C0084B984705E03E210120064B984700E03D
S2144007D000BF00BF0837BD4680BD00BF251740009C
S2144007E0911740000118400080B582B000AF786095
S2144007F07B68072B26D801A252F823F01D0840003C
S21440080021084000210840003308400033084000DB
S214400810330840003308400033084000012312E00C
S2144008200B4B98470346002B14BF01230023DBB233
S21440083009E0084B98470346002B14BF01230023CA
S214400840DBB200E0002318460837BD4680BD00BF37
S2144008505D1740007918400080B483B000AF7860E0
S2144008607B68072B25D801A252F823F08D0840005C
S21440087093084000990840009F084000A3084000A5
S214400880A7084000AB084000AF0840004FF4FA43CA
S21440089010E04FF400430DE04FF400430AE0084BED
S2144008A008E0084B06E0084B04E0074B02E0064B26
S2144008B000E0002318460C37BD465DF8047B7047C1
S2144008C000093D0000127A00001BB70080B582B0D8
S2144008D000AF0346FB7100BFFB791846054B9847AF
S2144008E0034683F00103DBB2002BF5D100BF083787
S2144008F0BD4680BDE907400080B586B000AFF860D1
S2144009007A603B600B46FB727B68002B07D13B68E6
S214400910002B04D1FB684FF470021A6019E0FB7A92
S21440092018460E4B984702467B68B2FBF3F37B6152
S2144009307B693A6802FB03F37B613B68013B1A0420
S214400940074B13407A68D2B2134343F47C52FB6899
S2144009501A6000BF1837BD4680BD00BF590840002A
S2144009600000FF0780B582B000AF786039603B6812
S214400970002B08D1094B9847094A7B681B6843F00F
S2144009800053936205E0064A7B681B6843F4803355
S214400990D36100BF0837BD4680BD00BF95184000F4
S2144009A000060E4080B582B000AF78607B68002BB2
S2144009B003D1054B9847034602E0044B984703464D
S2144009C018460837BD4680BDB1184000CD184000D7
S2144009D080B582B000AF0346FB71FB79033B042B26
S2144009E008D8FB791846064B9847FB791846054BBE
S2144009F0984700E000BF00BF0837BD4680BD00BF37
S214400A0061074000CD08400080B582B000AF7860F6
S214400A1000BF7868044B98470346002BF9D0002364
S214400A2018460837BD4680BDA509400080B500AFD2
S214400A300620054B9847024613469B0013449A00EF
S214400A401344184680BD00BF5908400080B500AF2B
S214400A50024B98470346184680BD00BF2D0A40000B
S214400A6090B583B000AF1348134B98470620134BFE
S214400A709847381D192301220621114CA0473B1DDB
S214400A80002118460F4B984700200F4B98470220EE
S214400A900E4B984700200E4B98470E4B98470E4BF0
S214400AA0984703461846044B984700BF0C37BD4648
S214400AB090BD00BF00A3E11199244000D109400039
S214400AC0F908400065094000090A40002516400024
S214400AD0A1164000312340004D0A400080B586B044
S214400AE000AFF860B9607A6000237B61FB68002B3A
S214400AF012D04FF0FF3313E00B4B1B680B4A1268C3
S214400B00B96810469847BB680133BB607B690133C0
S214400B107B617B68013B7B607B68002BECDC7B6900
S214400B2018461837BD4680BD800A4020880A4020B7
S214400B3080B586B000AFF860B9607A6000237B610C
S214400B40FB68012B1ED0FB68022B1BD0FB68032BD7
S214400B5018D04FF0FF3319E00E4B1A680E4B18684A
S214400B60BB68591CB9601B78194690470346002B52
S214400B7002DA4FF0FF3309E07B6901337B617B6823
S214400B80013B7B607B68002BE6D17B6918461837B3
S214400B90BD4680BD840A4020880A402080B400AF0D
S214400BA0BFF34F8FBFF36F8F094B0022C3F850221D
S214400BB0074A074B5B6943F400335361BFF34F8FDB
S214400BC0BFF36F8F00BFBD465DF8047B704700BF24
S214400BD000ED00E080B48BB000AF264BD3F88030F9
S214400BE0FB61FB695B0BC3F30E037B62FB6903F09F
S214400BF007030433BB61FB69DB08C3F309037B616E
S214400C007B69BB60BB68B3FA83F37B607B68DBB20F
S214400C1003F01F033B61BFF34F8F7B693B623A6A29
S214400C203B6902FA03F319467A6ABB6902FA03F390
S214400C300B43FB600F4AFB68C2F860323B6A5A1EA1
S214400C403A62002BEBD17B6A5A1E7A62002BE4D1C3
S214400C50BFF34F8F074A074B5B6943F480335361BA
S214400C60BFF34F8FBFF36F8F00BF2C37BD465DF885
S214400C70047B704700ED00E080B582B000AF78603E
S214400C807868034B984700BF0837BD4680BD00BF15
S214400C90E918400080B500AF0A20084B98470B2063
S214400CA0064B98470C20054B98471020034B984717
S214400CB01120024B984700BF80BD00BF790C400012
S214400CC080B489B000AF78607B68FB61FB69BB612C
S214400CD0BB695A09FB697B617B6903F01F030121ED
S214400CE001FA03F33A61FB603B69BB60BA68064BA6
S214400CF013445B021A46FB68536000BF2437BD4668
S214400D005DF8047B704700BF0707200080B48DB0B5
S214400D1000AF786039607B68FB623B68BB62FB6A09
S214400D207B627B6A5A09FB6A3B623B6A03F01F039D
S214400D30012101FA03F3FA61BB61BB6A7B61FB697F
S214400D403B613A69374B13445B02FB607B6903F0B7
S214400D500803002B03D0FB68BA695A6602E0FB68BA
S214400D60BA691A667B6903F01003002B04D0FB684F
S214400D70BA69C3F8942003E0FB68BA69C3F89020C8
S214400D807B6903F02003002B03D0FB68BA691A6521
S214400D9002E0FB68BA695A657B6903F0C003002B22
S214400DA003D0FB68BA691A6202E0FB68BA695A6205
S214400DB07B6903F08003002B04D0FB68BA69C3F854
S214400DC0842003E0FB68BA69C3F880207B6903F09F
S214400DD00103002B06D0FB681A6FBB691A43FB68F9
S214400DE01A6706E0FB681A6FBB69DB431A40FB686C
S214400DF01A677B6903F00203002B06D0FB685A6F24
S214400E00BB691A43FB685A6706E0FB685A6FBB69C2
S214400E10DB431A40FB685A6700BF3437BD465DF86F
S214400E20047B70470707200080B48DB000AF786021
S214400E300B46FB707B68FB62FB7887F82B30FB6ABF
S214400E407B627B6A3B623B6A5B09FB61FA69174BD4
S214400E5013445B02BB6197F82B30012B09D1FB6A28
S214400E607B617B6903F01F0301229A40BB691A61CC
S214400E700CE097F82B30002B08D1FB6A3B613B69AE
S214400E8003F01F0301229A40BB695A61FB6AFB606C
S214400E90FB6803F01F0301229A40BB69C3F8A020F9
S214400EA000BF3437BD465DF8047B70470707200017
S214400EB080B48BB000AF78600B46FB707B687B627B
S214400EC0FB7887F823307B6AFB61FB69BB61BB69B3
S214400ED05B097B617A69104B13445B023B6197F870
S214400EE02330002B09D07B6AFB60FB6803F01F03AE
S214400EF001229A403B691A6308E07B6ABB60BB6884
S214400F0003F01F0301229A403B695A6300BF2C3707
S214400F10BD465DF8047B70470707200080B48DB05F
S214400F2000AF78600B46FB707B68FB62FB7887F807
S214400F302B30FB6A7B627B6A5A09FB6A3B623B6AE0
S214400F4003F01F03012101FA03F3FA61BB6197F82E
S214400F502B30FB75FB693B613A69234B13445B02BC
S214400F60FB60FB7D013B032B2ED801A252F823F0F9
S214400F70A50F4000B70F4000810F4000930F400080
S214400F80FB68BA69C3F8C420FB68BA69C3F8D020C6
S214400F901FE0FB68BA69C3F8C420FB68BA69C3F8A7
S214400FA0D42016E0FB68BA69C3F8C020FB68BA696B
S214400FB0C3F8D0200DE0FB68BA69C3F8C020FB68D0
S214400FC0BA69C3F8D42004E0FB68BA69C3F8B42011
S214400FD003E0FB68BA69C3F8B02000BF3437BD46AB
S214400FE05DF8047B704700BF0707200080B400AF61
S214400FF0BFF34F8FBFF36F8F0C4A0C4BD3F8903232
S21440100023F00103C2F89032084A084BD3F89432D2
S21440101023F00103C2F89432BFF34F8FBFF36F8FB4
S21440102000BFBD465DF8047B704700BF00ED00E0A2
S21440103080B500AF254B4FF400425A60244B98478A
S214401040244B9847244B254A5A60234B244A5A60DF
S214401050244B9847244B984701214820234B9847D8
S21440106001214820224B984700210B201F4B9847D0
S21440107088210B201F4B984702210B201E4B984778
S214401080002115201B4B984715201C4B98471C4A9F
S2144010901B4BD3F8143143F01003C2F8143103212C
S2144010A02420144B98472420144B984700210320B3
S2144010B0104B98470320114B9847002104200D4BB6
S2144010C0984704200D4B984700BF80BD50180E40EF
S2144010D09D0B4000D50B4000000C0E400C08005AFB
S2144010E00C07005AED0F4000950C4000290E4000BA
S2144010F0B10E40000D0D40001D0F4000C10C4000D9
S2144011000080084080B485B000AFF860B9607A606F
S2144011107B68002B03D0FB68BA685A6602E0FB681F
S214401120BA681A6600BF1437BD465DF8047B704740
S21440113080B483B000AF786039607B683A681A63E1
S21440114000BF0C37BD465DF8047B704780B483B063
S21440115000AF786039607B683A685A6300BF0C37E6
S214401160BD465DF8047B704780B487B000AFF8603A
S214401170B9607A60FB687A685A64BB68B3F1C05F4E
S2144011804AD0B3F1C05F08D8B3F1006F16D0B3F1C0
S214401190805F2CD0002B69D064E0B3F1205F65D02F
S2144011A0B3F1205F03D8B3F1005F4AD05AE0B3F101
S2144011B0405F5BD0B3F1605F58D053E0FB681B6F75
S2144011C07B61FB681A6F7B68D9437B690B401A408A
S2144011D0FB681A67FB685B6F7B61FB685A6F7B68CE
S2144011E0D9437B690B401A40FB685A673AE0FB6874
S2144011F01B6F7B617A687B691A43FB681A67FB68DA
S2144012005B6F7B61FB685A6F7B68D9437B690B4099
S2144012101A40FB685A6725E0FB681B6F7B61FB68DA
S2144012201A6F7B68D9437B690B401A40FB681A6784
S214401230FB685B6F7B617A687B691A43FB685A6719
S21440124010E0FB681B6F7B617A687B691A43FB681A
S2144012501A67FB685B6F7B617A687B691A43FB6839
S2144012605A6700BFFB687A685A6000E000BF1C37C8
S214401270BD465DF8047B704780B584B000AFF8602B
S214401280B9607A60B968F868194B98477B6803F08C
S21440129001031A46B968F868164B98477B6803F00E
S2144012A00A03002B03D0FB68BA681A6202E0FB68A8
S2144012B0BA685A627B6803F00203002B04D0FB68CE
S2144012C0BA68C3F8802008E07B6803F00803002B68
S2144012D003D0FB68BA68C3F88420FB68BA685A61D2
S2144012E0FB68BA681A6000BF1037BD4680BD00BFB5
S2144012F00D1440000511400080B584B000AFF86082
S214401300B9607A603B60B968F868124B9847BA692A
S214401310B968F868104B98473B68002B03D0FB68C9
S214401320BA681A6502E0FB68BA685A657B68002BA3
S21440133003D0FB68BA681A6302E0FB68BA685A636F
S214401340FB68BA681A61FB68BA681A6000BF103753
S214401350BD4680BD0D1440000511400080B483B0EA
S21440136000AF786039607B689A6B3B681340002B0F
S21440137001D1002300E0012318460C37BD465DF836
S214401380047B704780B485B000AFF860B9607A607F
S2144013907B6803F01003002B20D0FB68BA68C3F8C4
S2144013A0B0207B6803F02003002B04D0FB68BA68AB
S2144013B0C3F8D42003E0FB68BA68C3F8D0207B6843
S2144013C003F04003002B04D0FB68BA68C3F8C02083
S2144013D008E0FB68BA68C3F8C42003E0FB68BA6854
S2144013E0C3F8B42000BF1437BD465DF8047B704791
S2144013F080B483B000AF786039607B683A681A641E
S21440140000BF0C37BD465DF8047B704780B483B0A0
S21440141000AF786039607B683A685A6400BF0C3722
S214401420BD465DF8047B704780B483B000AF7860FB
S2144014307B68DB6C18460C37BD465DF8047B70470E
S21440144080B483B000AF78607B689B6C18460C37DE
S214401450BD465DF8047B704780B584B000AF7860C9
S21440146039607868264B9847F8607868254B9847E7
S2144014700246FB681340FB60FB68002B3CD0002311
S214401480BB6034E0204ABB681B0113441A683B68C3
S2144014909A4226D11C4ABB681B01134404331A687F
S2144014A0FB681340002B1CD0174ABB681B01134433
S2144014B00C331B681449BA6812010A441068124972
S2144014C0BA6812010A4404321268114698470E4A16
S2144014D0BB681B01134404331B68DB43FA681340A4
S2144014E0FB60BB680133BB60BB68062B03D8FB6858
S2144014F0002BC7D100E000BF00BF1037BD4680BDFF
S2144015002914400041144000D009402080B586B0E0
S21440151000AFF860B9607A603B60214B1B68062BD1
S21440152001D9012338E00023FB7511E0FB7D1B0148
S2144015301C4A13443B613B691A68BB689A4204D113
S2144015403B695A687B689A4208D0FB7D0133FB753D
S214401550FA7D134B1B689A42E8D900E000BF3B690E
S214401560BA681A603B697A685A603B693A689A601A
S2144015703B693A6ADA60FA7D094B1B6801339A4246
S21440158004D1074B1B680133054A13603A687968F3
S214401590F868054B9847002318461837BD4680BD67
S2144015A0400A4020D00940208513400080B500AF57
S2144015B00A210248024B984700BF80BD000E0E40ED
S2144015C05914400080B500AF0B210248024B9847A3
S2144015D000BF80BD00100E405914400080B500AFDB
S2144015E00C210248024B984700BF80BD00120E40B7
S2144015F05914400080B500AF10210248024B98476E
S21440160000BF80BD00140E405914400080B500AFA6
S21440161011210248024B984700BF80BD00160E407D
S2144016205914400080B483B000AF78607B68013BBB
S214401630032B1AD801A252F823F000BF4D164000E3
S214401640531640005B1640006316400000237B6044
S2144016500EE04FF480737B600AE04FF440737B608B
S21440166006E04FF400737B6002E000237B6000BF1F
S2144016700A490A4B1B6B23F440727B6813430B6387
S21440168000BF064B9B6E03F00803002BF9D000BF4B
S2144016900C37BD465DF8047B704700BF00060E4021
S2144016A080B485B000AF78601D491D4B1B6B23F09E
S2144016B070027B6813430B634FF48053FB6007E074
S2144016C0FB68002B01D1012323E0FB68013BFB6054
S2144016D0134B9B6E03F00803002BF1D0104A104BBF
S2144016E01B6B23F0030343F0020313634FF4805352
S2144016F0FB6007E0FB68002B01D1012309E0FB6893
S214401700013BFB60064B9B6E03F00803002BF1D0B9
S214401710002318461437BD465DF8047B704700BF6B
S21440172000060E4080B483B000AF78607B68012B23
S21440173005D10749064B9A68064B13438B60044B0A
S214401740054A1A6000BF0C37BD465DF8047B7047FB
S21440175010180E40000010A5080000A580B400AF89
S214401760094B5B6903F08003002B07D0074B9B6E49
S21440177003F08003002B01D0012300E0002318462D
S214401780BD465DF8047B704710180E4000060E40BC
S21440179080B483B000AF78601549154B1A6A154B74
S2144017A013430B6200BF124B9B6E03F40033002BB7
S2144017B0F9D00F490E4B1A6A0F4B13407A68134301
S2144017C043F45C130B6200BF094B9B6E03F400337B
S2144017D0002BF9D00649064B1A6A084B134043F4CF
S2144017E05C130B6200BF0C37BD465DF8047B704748
S2144017F000060E40080037008FFFC8FFFFFFC8FEF8
S21440180080B483B000AF786039607B68002B08D026
S2144018101349134B1B6A134A1A40134B13430B626C
S21440182018E00F490E4B1A6A104B13403A681202E2
S21440183092B21A430E4B13430B6200BF084B9B6E8B
S21440184003F00103002BF9D00549054B1A6A094BF2
S21440185013430B6200BF0C37BD465DF8047B7047F0
S21440186000060E40FCFFC8FE02003701FCFFC8FF22
S214401870010037000000370180B400AF044B9B6E78
S21440188003F480331846BD465DF8047B704700BFBE
S21440189000060E4080B400AF044B4FF000529A62F0
S2144018A000BFBD465DF8047B704700BF00060E4093
S2144018B080B400AF044B9B6E03F002031846BD464F
S2144018C05DF8047B704700BF00060E4080B400AF52
S2144018D0044B9B6E03F040031846BD465DF8047B00
S2144018E0704700BF00060E4080B483B000AF7860FB
S2144018F07B683F2B01D901232FE07B681F2B13D831
S214401900194B9A6901217B6801FA03F31A400121B9
S2144019107B6801FA03F39A421ED0134A01217B6882
S21440192001FA03F3136117E07B68203B7B600E4BA4
S214401930D3F8082101217B6801FA03F31A400121FC
S2144019407B6801FA03F39A4206D0074A01217B6876
S21440195001FA03F3C2F80031002318460C37BD469F
S2144019605DF8047B704700BF00060E4080B487B029
S21440197000AFF860B9607A60FA68BB689B011344B0
S2144019807B617B6902221A607B694FF0FF329A6264
S2144019907B691B6A7B697A685A6000BF1C37BD4604
S2144019A05DF8047B704780B483B000AF78603960E0
S2144019B07A683B689B01134405221A6000BF0C37C7
S2144019C0BD465DF8047B704780B485B000AFF860D4
S2144019D0B9607A60FA68BB689B0113441C337A6826
S2144019E01A6000BF1437BD465DF8047B704780B46C
S2144019F087B000AFF860B9607A60FA68BB689B0150
S214401A0013447B617B697A685A6200BF1C37BD46C7
S214401A105DF8047B704780B48DB000AFF860B96065
S214401A207A603B6002233B6108237B612023BB61D5
S214401A308023FB61BB6BDB0B3B620023FB621AE03F
S214401A40FB6A9B0007F13002134453F8203CBA6807
S214401A50B2FBF3F3BB62BB6A1B0C7B62FA68BB6AE1
S214401A609A4201D9002323E0FA687B6A9A4206D25A
S214401A70FB6A0133FB62FB6A042BE1D900E000BF3E
S214401A80FB6A042B01D9002312E07B68002B08D0A8
S214401A90FB6A9B0007F13002134453F8202C7B6806
S214401AA01A603B68002B02D03B68FA6A1A60012332
S214401AB018463437BD465DF8047B704780B483B023
S214401AC000AF78607B6808221A607B6820221A6024
S214401AD07B6804221A6000BF0C37BD465DF8047B65
S214401AE07047000080B584B000AF7860396000234E
S214401AF0FB607B684FF0FF329A627B681B6A7868AF
S214401B000B4B984778680B4B98473B6859683B683F
S214401B101B681A467868084B98470346012B01D144
S214401B200123FB60FB6818461037BD4680BD00BFEA
S214401B30511E4000BD1A40003D1B400080B489B095
S214401B4000AFF860B9607A600023FB61BB68344A36
S214401B50934201D901235DE0BB68324A934237D9AC
S214401B607B68314AA2FB03239B0B033B7B61BA682D
S214401B702E4B13449B007A68B2FBF3F3033B3B6166
S214401B8005E0FB690133FB617B695B087B617B6930
S214401B90FF2B09D9FB69062BF3D905E0FB69013316
S214401BA0FB613B695B083B613B69FF2B02D9FB69E4
S214401BB0062BF3D97B69DAB23B691B029BB21A4308
S214401BC0FB691B0403F4E0231A43FB681A6120E018
S214401BD0BB685B007A68B2FBF3F3033BBB6105E08E
S214401BE0FB690133FB61BB695B08BB61BB69FF2BCB
S214401BF002D9FB69062BF3D9BB69DAB2BB691B0273
S214401C009BB21A43FB691B0403F4E0231A43FB68A8
S214401C101A61002318462437BD465DF8047B70479A
S214401C20801A060000DC0500F11976050012FD3F1B
S214401C3080B485B000AF786039603B68002B01D136
S214401C4000231DE07B681B78FB603B68012B09DDA9
S214401C50FB681B02FB607B6801331B781A46FB68F7
S214401C601343FB603B68022B09DDFB681B02FB60ED
S214401C707B6802331B781A46FB681343FB60FB689D
S214401C8018461437BD465DF8047B704780B586B06D
S214401C9000AF786039603B68DB687B613B689B6877
S214401CA03B6143F69823FB607B69002B01D10123FF
S214401CB059E07B6800225A603B681B7C1B0403F497
S214401CC0FE023B685B681B0203F44073134343F415
S214401CD080527B685A607B680022DA603A683B68CC
S214401CE05B6819461046224B984702467B68DA6086
S214401CF07B6801221A6029E07B681B6ABB60BB6870
S214401D0003F48073002B01D005232CE0FB685A1E99
S214401D10FA60002B01D1092325E07B69012B02D113
S214401D207B6802221A60BB6803F00203002B00D1D6
S214401D300CE03B695A1C3A617A68126BD2B21A7050
S214401D407B69013B7B6143F69823FB607B69002BF4
S214401D50D2D100BF7B681B6A03F00103002BF9D089
S214401D607B681B6A002318461837BD4680BD00BFF7
S214401D70311C400080B586B000AF786039603B6863
S214401D80DB687B613B689B683B617B69002B01D1CC
S214401D90012356E07B6800225A603B681B7C1B048C
S214401DA003F4FE023B685B681B0203F440731A436D
S214401DB07B685A607B680022DA603A683B685B68FA
S214401DC019461046214B984702467B68DA6019E070
S214401DD07B681B6AFB60FB6803F48073002B01D0B2
S214401DE005232EE0FB6803F00403002B00D109E036
S214401DF03B695A1C3A611B781A467B685A637B6972
S214401E00013B7B617B69002BE2D17B681B6AFB60F0
S214401E10FB6803F48073002B01D0052311E0FB68B8
S214401E2003F00403002B00D1EFE700BF7B680222DB
S214401E301A6000BF7B681B6A03F00103002BF9D0D1
S214401E40002318461837BD4680BD00BF311C4000F1
S214401E5080B483B000AF78607B6880221A607B686D
S214401E601B6B00BF0C37BD465DF8047B704780B4E3
S214401E7085B000AF786039600023FB607B68AC2299
S214401E801A603B681A683B685B68B2FBF3F31B0951
S214401E90FB60FB68002B03D0FB68B3F5803F01D3A3
S214401EA001230AE07B68FA681A623B689A687B6896
S214401EB05A607B6850221A60002318461437BD4685
S214401EC05DF8047B704780B483B000AF78607B6871
S214401ED05B6903F40073002B14BF01230023DBB2BD
S214401EE018460C37BD465DF8047B704780B483B017
S214401EF000AF78600B46FB707B685B6903F00203BB
S214401F00002B01D1012303E0FA787B68DA610023D5
S214401F1018460C37BD465DF8047B704780B483B0E6
S214401F2000AF786039607B685B6903F00103002B83
S214401F3001D1012305E07B689B69DAB23B681A70E1
S214401F40002318460C37BD465DF8047B704780B4C6
S214401F5089B000AFF860B9607A60BB681A017B68E8
S214401F609A4202D81023FB6101E00823FB617B689C
S214401F70DA00FB69B96801FB03F35B081A44FB69A6
S214401F80B96801FB03F3B2FBF3F3BB61BB69DB0843
S214401F907B61BB6903F007033B617B69002B03D081
S214401FA07B69B3F5803F01D301230FE0FB69082B23
S214401FB005D1FB685B6843F40022FB685A603B69C6
S214401FC01A047B691A43FB681A62002318462437B2
S214401FD0BD465DF8047B704780B582B000AF786040
S214401FE078680D4B98477B6800225A607B680022D1
S214401FF05A627B6800229A627868084B98477868ED
S214402000074B98477868074B98477868064B984739
S21440201000BF0837BD4680BDD1214000CB204000E0
S214402020FF204000312140004D21400080B584B063
S21440203000AFF860B9607A60F8681A4B98471A4B58
S21440204000221A60BB68002B09D0BB681B687A6800
S2144020501946F868154B98470346002B01D00123D4
S2144020601BE0BB685A68BB689B681A43BB681B6921
S2144020701A43BB68DB681A430B4B1B6813430A4A78
S2144020801360094B1B68084A1360FB685A68064B86
S2144020901B681A43FB685A60002318461037BD4633
S2144020A080BD00BFD91F4000440A40204F1F40005B
S2144020B080B483B000AF78607B6840221A6000BF6F
S2144020C00C37BD465DF8047B704780B483B000AFE4
S2144020D078607B6888221A6000BF0C37BD465DF882
S2144020E0047B704780B483B000AF78607B68102272
S2144020F01A6000BF0C37BD465DF8047B704780B45D
S21440210083B000AF78607B6824221A6000BF0C372B
S214402110BD465DF8047B704780B483B000AF7860FE
S2144021207B685B6918460C37BD465DF8047B704794
S21440213080B483B000AF78607B684FF480721A60DA
S21440214000BF0C37BD465DF8047B704780B483B053
S21440215000AF78607B684FF400221A6000BF0C37EF
S214402160BD465DF8047B704780B483B000AF7860AE
S21440217039607B685B6903F00203002B01D10123C1
S21440218005E03B68C3F308027B68DA610023184623
S2144021900C37BD465DF8047B704780B483B000AF13
S2144021A0786039607B685B6903F00103002B01D1DE
S2144021B0012306E07B689B69C3F308023B681A600C
S2144021C0002318460C37BD465DF8047B7047000078
S2144021D080B483B000AF78607B68044AC3F8E420DC
S2144021E000BF0C37BD465DF8047B70470041535531
S2144021F080B483B000AFEFF310837B607B68002B26
S2144022000CBF01230023DBB23B6072B6BFF35F8F87
S214402210044B00221A703B6818460C37BD465DF8E2
S214402220047B70470000402080B483B000AF7860E5
S2144022307B68002B14BF01230023DBB218460C3703
S214402240BD465DF8047B704780B582B000AF7860CD
S2144022507868074B98470346002B05D0054B01226C
S2144022601A70BFF35F8F62B600BF0837BD4680BDA9
S214402270292240000000402080B584B000AF1E4BAD
S214402280FB601E4BBB60FA68BB689A420CD007E006
S214402290BB681A1DBA60FA68111DF96012681A60A8
S2144022A0BB68174A9342F3D3164BBB6004E0BB6847
S2144022B01A1DBA6000221A60BB68134A9342F6D3CE
S2144022C0124BFB60124AFB6823F07F039360114B6E
S2144022D098477860104A104B1B6843F470031360AD
S2144022E0BFF34F8FBFF36F8F78680C4B98470C4BFC
S2144022F098470C4B9847FEE7E49840000000402083
S214402300B4094020B4094020700B40200000400033
S21440231000ED00E0F121400088ED00E04922400059
S214402320A13B4000452F400080B400AFFEE70000D0
S21440233080B400AF524B1B6B03F00303012B14D049
S214402340012B02D3022B38D07AE04E4B5B6903F068
S2144023508003002B04D04C4B4FF400421A606FE0D1
S214402360494B4FF4FA421A606AE0454B1B6A03F049
S2144023708073002B03D0444B444A1A6060E0424BC3
S214402380434A1A603E4B1B6A03F07003102B04D07E
S214402390202B08D0002B0ED00EE03B4B1B685B007A
S2144023A0394A136008E0384B1A6813465B001344FA
S2144023B0354A136000E000BF42E0314B1B6A03F031
S2144023C08073002B03D0304B304A1A601CE02E4BF3
S2144023D02F4A1A602A4B1B6A03F07003102B04D056
S2144023E0202B08D0002B0ED00EE0274B1B685B003E
S2144023F0254A136008E0244B1A6813465B001344D2
S214402400214A136000E000BF1D4B1B6B03F0030323
S214402410022B14D11A4B9B6A1B0CC3F30A030133DD
S214402420194A126802FB03F3174A1360144B9B6A5F
S214402430DBB2154A1268B2FBF3F3134A136000BFCF
S2144024400F4B1B6B03F07003702B08D10E4B1B68B1
S214402450104AA2FB03235B080B4A13600AE0084BB2
S2144024601B6B1B0903F00703074A126822FA03F3A3
S214402470054A136000BFBD465DF8047B704700BF49
S21440248000060E4010180E4004004020001BB70007
S21440249000093D00ABAAAAAA80B483B000AF78601A
S2144024A07B68194A934204D8184B4FF080621A60F2
S2144024B023E07B68164A934203D8144B154A1A60A9
S2144024C01BE07B68144A934203D8104B134A1A60A9
S2144024D013E07B68124A934203D80C4B114A1A60A9
S2144024E00BE07B68104A934204D8084B4FF0042216
S2144024F01A6002E0054B0D4A1A6000BF0C37BD4615
S2144025005DF8047B704700BFFF2C3101000C0E4085
S214402510FF59620200010004FF8693030002000494
S214402520FFB3C40400030004FFE0F5050005000403
S21440253080B485B000AF7860104BFB60104B1B68D2
S214402540002B02D10E4B0F4A1A600D4B1B68BB6026
S214402550BA687B681A44FB689A4202DD4FF0FF3344
S21440256006E0074B1A687B681344054A1360BB684D
S21440257018461437BD465DF8047B7047FCFF45207F
S214402580480A4020702D402080B483B000AF786069
S2144025904FF0FF3318460C37BD465DF8047B704756
S2144025A080B483B000AF786039603B684FF4005227
S2144025B05A60002318460C37BD465DF8047B7047CA
S2144025C080B483B000AF7860012318460C37BD4610
S2144025D05DF8047B704780B485B000AFF860B960A2
S2144025E07A60002318461437BD465DF8047B704772
S2144025F080B483B000AF0346FB71094997F90730B2
S2144026005B09FA7902F01F02012000FA02F241F853
S214402610232000BF0C37BD465DF8047B704700BFE3
S21440262000E100E080B483B000AF03463960FB7140
S21440263097F90730002B0BDA0D49FB7903F00F03AF
S214402640043B3A68D2B25201D2B20B441A7609E041
S214402650084997F907303A68D2B25201D2B20B44D1
S21440266083F8002300BF0C37BD465DF8047B7047F7
S21440267000ED00E000E100E080B483B000AF786099
S2144026807B68072B25D801A252F823F0AD264000E0
S214402690B3264000B9264000BF264000C32640006F
S2144026A0C7264000CB264000CF2640004FF4FA43D2
S2144026B010E04FF400430DE04FF400430AE0084BAF
S2144026C008E0084B06E0084B04E0074B02E0064BE8
S2144026D000E0002318460C37BD465DF8047B704783
S2144026E000093D0000127A00001BB70080B500AF1D
S2144026F00620054B9847024613469B0013449A0013
S2144027001344184680BD00BF7926400080B500AF10
S214402710024B98470346184680BD00BFED26400052
S21440272080B500AF024B984703465B08184680BD0D
S214402730ED26400080B582B000AF78607868034BE5
S214402740984700BF0837BD4680BD00BFE918400027
S21440275080B58CB000AF78603960494B98470346E7
S2144027607B623B681B68BB623B689B68FB623B685E
S2144027701B68FB603B685B683B613B689B687B61B2
S2144027803B68DB68BB610023FB617B683D4A934244
S21440279008D107203C4B984707F124031946786830
S2144027A03A4B98477B683A4A934208D10820364BC2
S2144027B0984707F1240319467868344B98477B6856
S2144027C0344A934208D12C202F4B984707F12403D4
S2144027D0194678682D4B98477B682F4A934208D114
S2144027E02D20294B984707F1240319467868274B34
S2144027F098477B68294A934211D10D20224B98472F
S2144028001F4B9847024607F10C0319467868244B3D
S21440281098477868234B98477868234B98477B6857
S214402820224A934211D10E20174B9847144B984793
S214402830024607F10C0319467868194B98477868A2
S214402840184B98477868184B98477B68184A9342C5
S21440285011D10F200C4B9847094B9847024607F179
S2144028600C03194678680E4B984778680D4B984786
S21440287078680D4B984700BF3037BD4680BD00BFD7
S2144028802127400000080E40352740006F1E4000BC
S214402890000A0E40001A0E40001C0E400040024047
S2144028A02D204000B1204000E5204000008002403E
S2144028B000C0024080B582B000AF78600B46FB7027
S2144028C07B68364A93420AD100BFFB78194678683F
S2144028D0334B98470346002BF7D101235AE07B68D9
S2144028E0304A93420AD100BFFB78194678682C4B91
S2144028F098470346002BF7D101234BE07B682A4AD2
S21440290093420AD100BFFB7819467868244B984713
S2144029100346002BF7D101233CE07B68234A9342D1
S2144029200AD100BFFB78194678681D4B9847034686
S214402930002BF7D101232DE07B681D4A93420AD134
S21440294000BFFB78194678681A4B98470346002B19
S214402950F7D101231EE07B68174A93420AD100BF95
S214402960FB7819467868134B98470346002BF7D1F7
S21440297001230FE07B68114A93420AD100BFFB78DF
S214402980194678680B4B98470346002BF7D101232E
S21440299000E0002318460837BD4680BD00080E40BC
S2144029A0ED1E4000000A0E40001A0E40001C0E406D
S2144029B000400240692140000080024000C00240C2
S2144029C080B584B000AF786039600023FB607B68D8
S2144029D0344A934207D100BF39687868324B9847EB
S2144029E00346002BF8D17B68304A934207D100BF9C
S2144029F0396878682C4B98470346002BF8D17B689B
S214402A002B4A934207D100BF39687868264B9847CF
S214402A100346002BF8D17B68264A934207D100BF75
S214402A2039687868204B98470346002BF8D17B6876
S214402A30214A93420DD100BF07F10C03194678682E
S214402A401E4B98470346002BF6D1FB68DAB23B682C
S214402A501A707B681A4A93420DD100BF07F10C03E7
S214402A6019467868154B98470346002BF6D1FB6805
S214402A70DAB23B681A707B68124A93420DD100BFA7
S214402A8007F10C03194678680C4B98470346002B11
S214402A90F6D1FB68DAB23B681A7000BF1037BD4605
S214402AA080BD00BF00080E401D1F4000000A0E40BB
S214402AB0001A0E40001C0E40004002409B21400081
S214402AC00080024000C0024080B582B000AF78600F
S214402AD039600F4A7B6813600E4B0F4A1A600F4BE3
S214402AE00F4A1A60396878680E4B98470E4B1B6839
S214402AF09B68002118460D4B98470B4B1B685B683C
S214402B0000211846094B984700BF0837BD4680BD90
S214402B10880A4020840A4020B5284000800A402089
S214402B20C1294000512740000C004020B53C4000E1
S214402B3080B582B000AF786039604FF0805106486B
S214402B40064B98474FF480710548044B984700BFA2
S214402B500837BD4680BD00BF00140E40592D4000CA
S214402B6000120E4080B582B000AF0848084B984728
S214402B7078607B6803F00103002B02D00548064BC3
S214402B80984700BF0837BD4680BD00BF0080024062
S214402B90192140009C0A40206905400090B583B04A
S214402BA000AF0123544A3B216820544CA0470346BB
S214402BB0DAB2534B1A700123524A3C2168204F4CDC
S214402BC0A0470346DAB24E4B1A7001234E4A3D21C7
S214402BD068204A4CA0470346DAB2494B1A70012394
S214402BE04A4A40216820454CA0470346DAB2444B47
S214402BF01A700123464A3F216820404CA0470346AE
S214402C00DAB23F4B1A700123424A402168203B4CBF
S214402C10A0470346DAB23A4B1A70374B1B78DBB202
S214402C201B021AB2374B1B78DBB21BB213431AB2E5
S214402C30394B1A80344B1B78DBB21B021AB2334B2B
S214402C401B78DBB21BB213431AB2344B1A80304B9C
S214402C501B78DBB21B021AB22E4B1B78DBB21BB2C0
S214402C6013431AB22E4B1A802B4BB3F90030194639
S214402C702A4BB3F900301A46294BB3F9003029489D
S214402C80294CA04779682948274B9847224BB3F9E7
S214402C9000301A46214BB3F9003002335A40204BDD
S214402CA0B3F900300233534083F00202204B104603
S214402CB0984703460C46184621461E4B98470A46F8
S214402CC001461D4B08461146984703467B604FF425
S214402CD080711A481A4B98477A681A491A481B4B0B
S214402CE0984779681A48104B98471748194B9847A1
S214402CF000BF0C37BD4690BD000B4020FD0640008F
S214402D00990A40209A0A4020980A40208C0A40207F
S214402D10940A40209B0A40206A0B4020680B4020C3
S214402D20960A402050954000F13B40006895400090
S214402D30293540004D304000553B400000120E40C3
S214402D40592D400070954000040B4020113E400035
S214402D50789540001505400080B582B000AF786099
S214402D60396039687868094B98470346002B04D089
S214402D7039687868064B984703E039687868054BA9
S214402D80984700BF0837BD4680BD00BF5D13400072
S214402D904D1140003111400090B583B002AF0A207B
S214402DA0104B984709224FF400610F480F4B984745
S214402DB04FF400610C480E4B98470E4B009350233F
S214402DC04FF400620A2108480B4CA0470A200B4BE0
S214402DD0984701210A200A4B984700BF0437BD4652
S214402DE090BD00BFE9184000000E0E40791240002A
S214402DF0F1134000312B40000D154000F1254000F6
S214402E002526400090B585B002AF78600C20074B71
S214402E1098477A680023009300234FF48071044853
S214402E20044CA04700BF0C37BD4690BDE918400093
S214402E3000120E40F912400090B587B002AF184B12
S214402E409847F8601820174B9847391D07F1080235
S214402E50FB6800930B46F9680120134CA0477B683B
S214402E6043F480431A4601211048114B9847BB68EB
S214402E70FA68B2FBF3F31A4601210C480D4B98470B
S214402E8018200D4B98471022012108480B4B9847B5
S214402E90012106480A4B984700BF1437BD4690BDEF
S214402EA00D274000E9184000171A400000C00040B7
S214402EB06D194000C9194000F1254000EF19400047
S214402EC0A719400090B585B000AF0B20154B98472A
S214402ED00A20144B984710224FF000511248134BCB
S214402EE098474FF400124FF0006111480F4B984737
S214402EF0104A104BD3F8143143F01003C2F8143183
S214402F000D4B3C460FCB84E80F000E20054B9847F0
S214402F103B46194609480A4B984700BF1437BD46FA
S214402F2090BD00BF3527400000100E40691140009C
S214402F30000E0E4000800840889540000080024009
S214402F40C92A400098B500AF2B4B98472B4B984763
S214402F502B4B4FF400425A602A4B984701202A4B8D
S214402F6098472A4B98472A4B98472A482A4B9847CF
S214402F702A4B984701232A4A75216820294CA047A6
S214402F800346DAB2284B1A70274B1B78002B02D028
S214402F902648214B9847224B1B78682B05D0204B60
S214402FA01B78194622481C4B9847224B01221A7020
S214402FB00123204A6B2168201F4CA0470346DAB203
S214402FC0194B1A70184B1B78002B02D01B48124B1B
S214402FD09847184B00221A700123164A1C21682075
S214402FE0154CA0470346DAB20F4B1A70144B154ADD
S214402FF01A60154B9847FEE7610A400031104000C2
S21440300050180E40C52E4000052E4000992D400019
S2144030108504400098954000F13B40006D06400016
S2144030209C0A4020FD064000990A4020B09540008A
S214403030C8954000040B4020A9064000F09540008B
S214403040900A402040DA7F38392E40002DE9F04F74
S2144030508BB004460D4600F057F8294B93F900A074
S214403060BAF1FF3F06460F4612D022462B46204670
S214403070294600F059FD834650B94FF000084FF0FE
S214403080000942464B462046294600F025FD20B919
S214403090304639460BB0BDE8F08F1A4BCDF820B01D
S2144030A00122CDE90445CDE902458DE80C00BAF190
S2144030B0000F17D042464B464046494600F0C4FBF8
S2144030C0BAF1020FCDE906010ED100F063FD2123CF
S2144030D00360089B73B9DDE90667304639460BB096
S2144030E0BDE8F08FCDE90689684600F0C9F80028AB
S2144030F0EFD1EAE700F04EFD089B0360EBE700BF28
S21440310008004020089640002DE9F8435B4F8F4367
S21440311005460C4600F0928000290B4602466FDDBD
S2144031200F157BD0A7F2FF37C3F31303F80743F41A
S21440313080135CD403EBD27100260B447F10520000
S214403140B64616204FF400110EEB01049C424FEA9F
S214403150D2754FEA420203DC1B1B04EB010E0E4401
S214403160013805EB43034FEA5101EDD18446202454
S2144031704FF0004109E020D003EBD275013C4FEA06
S21440318051012B444FEA420220D0734501EB0C0517
S214403190F1DD002D05EB010C09DBF0469542A3EB73
S2144031A00E0300D9013B521B0844C646E4E7BCF177
S2144031B0000FF2DB0EF10108F0E79542DCD8002D57
S2144031C005EB010C44DB98460023ECE7134313D190
S2144031D04008731003F17F5303F50013F20703EB27
S2144031E0075948BF40F000404946BDE8F8835B00B9
S2144031F003EBD27352009DE7411C2DD00130E7E728
S214403200064621F000473E43EFD069BB0F46D30A3F
S214403210153F5205002BFAD0DE0220D4002400E0F1
S21440322004465B00DD0204F10100F9D5C0F120013F
S21440323022FA01F10B433F1B824073E702460B46DE
S21440324000F0D8F92A46234600F022F8BDE8F88375
S214403250BCF1000FAEDAB6E701362046B9E70020EB
S21440326020214FF0FF34E3E702460B4600F00EF80D
S21440327002460B4600F0E8FAB7E700BF0000F07FD2
S2144032800020704781F0004102E000BF83F0004319
S21440329030B54FEA41044FEA430594EA050F08BFAC
S2144032A090EA020F1FBF54EA000C55EA020C7FEA70
S2144032B0645C7FEA655C00F0E2804FEA5454D4EBED
S2144032C05555B8BF6D420CDD2C4480EA020281EAB7
S2144032D0030382EA000083EA010180EA020281EAEF
S2144032E00303362D88BF30BD11F0004F4FEA013141
S2144032F04FF4801C4CEA113102D0404261EB410150
S21440330013F0004F4FEA03334CEA133302D05242D5
S21440331063EB430394EA050F00F0A780A4F1010491
S214403320D5F1200E0DDB02FA0EFC22FA05F28018CB
S21440333041F1000103FA0EF2801843FA05F35941B1
S2144033400EE0A5F120050EF1200E012A03FA0EFC30
S21440335028BF4CF0020C43FA05F3C01851EBE3715A
S21440336001F0004507D54FF0000EDCF1000C7EEB77
S21440337000006EEB0101B1F5801F1BD3B1F5001FB5
S2144033800CD349085FEA30004FEA3C0C04F10104D4
S2144033904FEA445212F5800F80F09A80BCF1004FFD
S2144033A008BF5FEA500C50F1000041EB045141EA7F
S2144033B0050130BD5FEA4C0C404141EB010111F480
S2144033C0801FA4F10104E9D191F0000F04BF01462B
S2144033D00020B1FA81F308BF2033A3F10B03B3F109
S2144033E020020CDA0C3208DD02F1140CC2F10C0299
S2144033F001FA0CF021FA02F10CE002F11402D8BFF7
S214403400C2F1200C01FA02F120FA0CFCDCBF41EAC2
S2144034100C019040E41AA2BF01EB0451294330BD91
S2144034206FEA04041F3C1CDA0C340EDC04F114046E
S214403430C4F1200220FA04F001FA02F340EA030045
S21440344021FA04F345EA030130BDC4F10C04C4F18B
S214403450200220FA02F001FA04F340EA030029466B
S21440346030BD21FA04F0294630BD94F0000F83F4B5
S214403470801306BF81F480110134013D4EE77FEA98
S214403480645C18BF7FEA655C29D094EA050F08BFE4
S21440349090EA020F05D054EA000C04BF19461046C5
S2144034A030BD91EA030F1EBF0021002030BD5FEA09
S2144034B0545C05D14000494128BF41F0004130BD31
S2144034C014F580043CBF01F5801130BD01F0004585
S2144034D045F0FE4141F470014FF0000030BD7FEAF8
S2144034E0645C1ABF194610467FEA655C1CBF0B46F3
S2144034F0024650EA013406BF52EA033591EA030F0A
S21440350041F4002130BD00BF90F0000F04BF002101
S214403510704730B54FF4806404F132044FF0000534
S2144035204FF0000150E700BF90F0000F04BF0021AD
S214403530704730B54FF4806404F1320410F0004513
S21440354048BF40424FF000013EE700BF42004FEA0E
S214403550E2014FEA31014FEA02701FBF12F07F438B
S21440356093F07F4F81F06051704792F0000F14BF88
S21440357093F07F4F704730B54FF4607401F00045CC
S21440358021F0004120E700BF50EA010208BF704723
S21440359030B54FF000050AE050EA010208BF704718
S2144035A030B511F0004502D5404261EB41014FF481
S2144035B0806404F132045FEA915C3FF4DCAE4FF085
S2144035C003025FEADC0C18BF03325FEADC0C18BF6C
S2144035D0033202EBDC02C2F1200300FA03FC20FABD
S2144035E002F001FA03FE40EA0E0021FA02F114440A
S2144035F0C1E600BF70B54FF0FF0C4CF4E06C1CEA1F
S21440360011541DBF1CEA135594EA0C0F95EA0C0F93
S21440361000F0DEF82C4481EA030621EA4C5123EA06
S2144036204C5350EA013518BF52EA033541F4801135
S21440363043F4801338D0A0FB02CE4FF00005E1FBE8
S21440364002E506F00042E0FB03E54FF00006E1FB32
S21440365003569CF0000F18BF4EF0010EA4F1FF0475
S214403660B6F5007F64F5407404D25FEA4E0E6D41B5
S21440367046EB060642EAC62141EA55514FEAC520C6
S21440368040EA5E504FEACE2EB4F1FD0C88BFBCF542
S214403690E06F1ED8BEF1004F08BF5FEA500E50F1F3
S2144036A0000041EB045170BD06F0004646EA0101B9
S2144036B040EA020081EA0301B4EB5C04C2BFD4EBEB
S2144036C00C0541EA045170BD41F480114FF0000EE4
S2144036D0013C00F3AB8014F1360FDEBF002001F052
S2144036E0004170BDC4F10004203C35DA0C341BDCCC
S2144036F004F11404C4F1200500FA05F320FA04F09E
S21440370001FA05F240EA020001F0004221F00041D1
S21440371010EBD37021FA04F642EB06015EEA430E44
S21440372008BF20EAD37070BDC4F10C04C4F1200574
S21440373000FA04F320FA05F001FA04F240EA020027
S21440374001F0004110EBD37041F100015EEA430EF8
S21440375008BF20EAD37070BDC4F1200500FA05F218
S2144037604EEA020E20FA04F301FA05F243EA020397
S21440377021FA04F001F0004121FA04F220EA0200A6
S21440378000EBD3705EEA430E08BF20EAD37070BDEC
S21440379094F0000F0FD101F00046400041EB0101CC
S2144037A011F4801F08BF013CF7D041EA060195F0AE
S2144037B0000F18BF704703F00046520043EB030368
S2144037C013F4801F08BF013DF7D043EA0603704755
S2144037D094EA0C0F0CEA135518BF95EA0C0F0CD060
S2144037E050EA410618BF52EA4306D1D181EA0301A6
S2144037F001F000414FF0000070BD50EA410606BFA0
S2144038001046194652EA430619D094EA0C0F02D1E4
S21440381050EA013613D195EA0C0F05D152EA033629
S2144038201CBF104619460AD181EA030101F0004147
S21440383041F0FE4141F470014FF0000070BD41F090
S214403840FE4141F4780170BD70B54FF0FF0C4CF46A
S214403850E06C1CEA11541DBF1CEA135594EA0C0F89
S21440386095EA0C0F00F0A7F8A4EB050481EA030ED6
S21440387052EA03354FEA013100F088804FEA0333BD
S2144038804FF0805545EA131343EA12634FEA02228B
S21440389045EA111545EA10654FEA00260EF000414C
S2144038A09D4208BF964244F1FD0404F5407402D29E
S2144038B05B084FEA3202B61A65EB03055B084FEA2F
S2144038C032024FF480104FF4002CB6EB020E75EB2C
S2144038D0030E22BFB61A754640EA0C005B084FEA54
S2144038E03202B6EB020E75EB030E22BFB61A7546D1
S2144038F040EA5C005B084FEA3202B6EB020E75EB1C
S214403900030E22BFB61A754640EA9C005B084FEA93
S2144039103202B6EB020E75EB030E22BFB61A7546A0
S21440392040EADC0055EA060E18D04FEA051545EA8F
S21440393016754FEA06164FEAC30343EA52734FEA38
S214403940C2025FEA1C1CC0D111F4801F0BD141EAB1
S21440395000014FF000004FF0004CB6E711F4801F16
S21440396004BF01430020B4F1FD0C88BFBCF5E06FF6
S2144039703FF6AFAEB5EB030C04BFB6EB020C5FEA06
S214403980500C50F1000041EB045170BD0EF0004E5B
S2144039904EEA113114EB5C04C2BFD4EB0C0541EA8D
S2144039A0045170BD41F480114FF0000E013C90E68A
S2144039B045EA060E8DE60CEA135594EA0C0F08BF4E
S2144039C095EA0C0F3FF43BAF94EA0C0F0AD150EA4D
S2144039D001347FF434AF95EA0C0F7FF425AF1046E0
S2144039E019462CE795EA0C0F06D152EA03353FF408
S2144039F0FDAE1046194622E750EA410618BF52EA85
S214403A0043067FF4C5AE50EA41047FF40DAF52EA58
S214403A1043057FF4EBAE12E74FF0FF3C06E000BFF5
S214403A204FF0010C02E000BF4FF0010C4DF804CD02
S214403A304FEA410C7FEA6C5C4FEA430C18BF7FEAC2
S214403A406C5C1BD001B050EA410C0CBF52EA430CF0
S214403A5091EA030F02BF90EA020F0020704710F170
S214403A60000F91EA030F58BF994208BF90422CBFFF
S214403A70D8176FEAE37040F0010070474FEA410CF8
S214403A807FEA6C5C02D150EA013C07D14FEA430C16
S214403A907FEA6C5CD6D152EA033CD3D05DF8040B87
S214403AA0704700BF8446104662468C4619466346B9
S214403AB000E000BF01B5FFF7B7FF002848BF10F190
S214403AC0000F01BD4DF808EDFFF7F4FF0CBF0120D5
S214403AD000205DF808FB00BF4DF808EDFFF7EAFF51
S214403AE034BF012000205DF808FB00BF4DF808ED0C
S214403AF0FFF7E0FF94BF012000205DF808FB00BF01
S214403B004DF808EDFFF7CEFF94BF012000205DF88A
S214403B1008FB00BF4DF808EDFFF7C4FF34BF012097
S214403B2000205DF808FB00BF4FEA410C7FEA6C5C62
S214403B3002D150EA013C0AD14FEA430C7FEA6C5C62
S214403B4002D152EA033C02D14FF0000070474FF0DA
S214403B50010070474A0011D212F5001211D20DD55D
S214403B606FF47873B3EB62520ED44FEAC12343F03E
S214403B70004343EA505323FA02F070474FF00000E8
S214403B80704750EA013002D14FF0FF3070474FF097
S214403B9000007047014B1868704700BF0C0040207B
S214403BA070B50F4E0F4D761BB61018BF002405D0CB
S214403BB0013455F8043B9847A642F9D10A4E0B4DBE
S214403BC0761B05F079FEB61018BF002406D00134E7
S214403BD055F8043B9847A642F9D170BD70BD00BF6A
S214403BE0C4984000C4984000CC984000C498400018
S214403BF00FB400B5074983B004AB086853F8042BEC
S214403C008168019301F090FB03B05DF804EB04B0CB
S214403C10704700BF0C00402070B4860746D0541E44
S214403C20002A41D0CAB2034602E014F1FF343BD327
S214403C3003F8012B9D07F8D1032C2ED9CDB245EAC7
S214403C4005250F2C45EA054519D903F110022646ED
S214403C50103E0F2E42F8105C42F80C5C42F8085CAE
S214403C6042F8045C02F11002F2D8A4F1100222F0ED
S214403C700F0204F00F041032032C13440DD91E46D5
S214403C802246043A032A46F8045BFAD8221F22F05A
S214403C9003020432134404F003042CB1C9B21C449A
S214403CA003F8011B9C42FBD170BC70471446034688
S214403CB0C2E700BF00290CBF022200224FF48063F7
S214403CC000F000B82DE9F043504C256883B0044618
S214403CD00F4690461E4615B1AB6B002B77D0B8F119
S214403CE0020F04D0B8F1010F7DD8002E7BDB2146B1
S214403CF0284603F023FA216B41B104F14003994270
S214403D0002D0284603F084FB00232363B4F90C302A
S214403D100022A26162601A0652D423F44A6323F05A
S214403D200303B8F1020FA38137D001AB6A462146A0
S214403D30284603F011FEA3891843A08116B317B393
S214403D40AB6B002B4BD0009B27609E42B4F90C30E7
S214403D5027611CBF43F40063A381B8F1010F04BF81
S214403D6043F00103A3819BB213F00800666123D0A1
S214403D7013F001002FD000207642A661A06003B069
S214403D80BDE8F083009E304603F058FE074668B311
S214403D90A38943F08003A381D2E7002004F14302C5
S214403DA043F0020300250121A381A5602260226121
S214403DB0616103B0BDE8F083A06003B0BDE8F08366
S214403DC02169284603F024FBB4F90C30A5E72846C1
S214403DD003F048FA83E7A66003B0BDE8F0832846C0
S214403DE003F040FAAFE74FF0FF30E2E7DDF800902F
S214403DF0B14506D0484603F021FE074608B14E4678
S214403E00C6E7B4F90C304FF0FF30C7E70C0040204F
S214403E100EB4F0B59CB021AB0F4953F8042B019378
S214403E2005466FF00044086802954FF402774FF657
S214403E30FF7602A90695ADF8147004940794ADF881
S214403E40166000F00BF8029B00221A701CB0BDE80A
S214403E50F04003B0704700BF0C0040202DE9F04F03
S214403E60C3B00C460B9192460F930C9003F066FD40
S214403E7003681A93184604F003FFA389199019069D
S214403E8003D52369002B01F0018000230DF1C809FA
S214403E901393149315932793269318931B93099380
S214403EA0CDF89490C846169317939AF80030544627
S214403EB0E3B1252B02D119E0252B03D014F8013F9E
S214403EC0002BF9D1A4EB0A0585B1269B279AC8F8A2
S214403ED000A001332A44072BC8F8045027922693A3
S214403EE07FDC08F10808099B2B4409932378002BB4
S214403EF07FD000231A468DF8773019460D939B469F
S214403F004FF0FF3063780A9004F1010A0AF1010A83
S214403F10A3F12000582800F2C083DFE810F03802F2
S214403F20BE03BE034002BE03BE03BE03BE03BE03C3
S214403F30BE0345020302BE035D006B02BE0386025B
S214403F409C039C039C039C039C039C039C039C0334
S214403F509C03BE03BE03BE03BE03BE03BE03BE0336
S214403F60BE03BE03BE0337035703BE035703BE0359
S214403F70BE03BE03BE039703BE03BE03AC03BE032D
S214403F80BE03BE03BE03BE035902BE03BE031E03EA
S214403F90BE03BE03BE03BE03BE03BE03BE03BE03D4
S214403FA0BE03BE03C602DB025703570357038B020A
S214403FB0DB02BE03BE039002BE039D02CC01B402E8
S214403FC00802BE03E101BE037E00BE03BE030D022F
S214403FD00D980F9340420D904BF0040B9AF800302A
S214403FE094E725AA0B990C9804F0B8FE40B9C84649
S214403FF079E7279B23B10C980B9925AA04F0AEFECF
S2144040000B9B9B8913F0400F099B18BF4FF0FF3363
S2144040100993099843B0BDE8F08F1BF0200F119329
S21440402040F0DD810F9A1BF0100F134640F06C8570
S2144040301BF0400F00F068851488043200250123E9
S2144040400F9200278DF877700A994A1C00F0658217
S2144040502BF08002079254EA050240F06482002961
S21440406040F03984002B40F0D4841BF001030E93BB
S21440407000F0028642AE302306F8413D0A9B0E9A77
S2144040809342B8BF134608930023129317B1089B78
S21440409001330893079B13F00203109302D0089B4A
S2144040A002330893079B13F0840540F00D830D9B65
S2144040B0089AA3EB020BBBF1000F40F30583BBF15C
S2144040C0100F279C269A29DD43462146A8461027EE
S2144040D00C9C0B9D06E0ABF1100BBBF1100F03F1EF
S2144040E0080318DD0132B74826921031072A279177
S2144040F083E88100EFDD25AA2946204604F02EFEFF
S21440410000287FF47DAFABF1100BBBF1100F279961
S214404110269A4B46E6DC45460C4698460132A94B65
S21440412026925C44072A279488E8080800F395847A
S2144041309DF8777008F1080877B1269B0133013463
S2144041400DF177010122072B2794269388E8060075
S21440415000F3D88308F10808109B6BB1269B013307
S21440416002341EA90222072B2794269388E80600CD
S21440417000F3D38308F10808802D00F013830A9BD0
S2144041800E9A9F1A002F36DD102F269B8E4D27DD68
S21440419042462146B0464FF0100B2E460C9C0B9DD7
S2144041A004E0103F102F02F1080215DD01331031F4
S2144041B0072B2791269382E84008F2DD25AA294658
S2144041C0204604F0CBFD00287FF41AAF103F102F96
S2144041D02799269B4A46E9DC35460C464646904695
S2144041E001333C44072B2794269388E8A00000F32D
S2144041F07E8308F10808079BDF0500F16782269B4F
S2144042000E99C8F8006001330C44072B2794C8F871
S2144042100410269300F34A8308F10808079B5B07BF
S2144042203AD50D9B089A9D1A002D35DD102D269BFC
S21440423020DD10260C9FDDF82CB004E0103D102D3C
S21440424008F1080816DD01335E4A26931034072B22
S214404250279488E84400F1DD25AA5946384604F0FC
S2144042607DFD00287FF4CCAE103D102D279C269B6C
S214404270C846E8DC0133534A26932C44072B279440
S21440428088E8240008DD25AA0B990C9804F066FD02
S21440429000287FF4B5AE279C099B0D9A08998A4260
S2144042A0ACBF9B185B180993002C40F00A83002390
S2144042B02693C846F9E511931BF0200340F0E281AF
S2144042C01BF0100240F02C841BF0400300F02884C2
S2144042D00F9913460A4604320C880F920025B0E622
S2144042E00F9A1193166800248DF87740151D002EFE
S2144042F000F0A5860A9A531C00F0078621463046F1
S21440430003F06EFE002800F0DF86831B0E930A94AF
S2144043100F95CDF81CB023EAE373089312949DF8EA
S2144043207770B3E69AF8003001222B21EEE54BF089
S214404330200B9AF80030E9E51193002A40F08D876B
S214404340224B18931BF0200F40F011810F9A1BF060
S214404350100F134640F0DF831BF0400F00F0DB8366
S214404360043314880F9300251BF0010F00F00C81D6
S21440437054EA050300F0088130239DF844208DF868
S21440438078308DF879204BF0020B022359E69AF8E4
S214404390003000297FF4BAAD01222021B6E54BF06B
S2144043A0010B9AF80030B1E50F9C23680D93184630
S2144043B00028234603F10403FFF60AAE0F939AF84B
S2144043C00030A3E558964000689640003896400076
S2144043D04BF0100B1BF0200F11933FF423AE0F9DB4
S2144043E0073525F0070303F10802D3E900450F928D
S2144043F0012326E69AF800302A2B0AF1010400F041
S2144044001F87A3F130000928A24600F2AB8600239E
S2144044101C461AF8013B04EB840400EB4404A3F169
S21440442030000928F5D90A9472E54BF0800B9AF8CB
S21440443000306BE54BF0400B9AF8003066E59AF892
S21440444000306C2B03BF9AF801304BF0200B0AF17A
S214404450010A4BF0100B59E5002A40F009871BF083
S214404460200F40F0F7841BF0100F40F0AA841BF09A
S214404470400F00F0A6840F9A136804320F92BDF8DE
S21440448024201A8011E50F99B24B0C6818933022FD
S214404490782304318DF8793011934BF0020B0F914D
S2144044A000258DF878200223CBE50F9911930A68F2
S2144044B08DF8A02000230A461F468DF87730043238
S2144044C001230893CDF81CB00A9712970F920E93CB
S2144044D028AEDFE51193002A40F0E2861BF0200F5D
S2144044E05DD11BF0100F40F006831BF0400F00F02C
S2144044F002830F99B1F900400431E51722462B4656
S2144045000F91002A73F1000358DB0A999DF87770E3
S2144045104A1C4FF001037FF49BAD54EA050200F0BD
S214404520DC81CDF81CB0012B00F07882022B40F0E5
S214404530038218984E46230904F00F0143EA057398
S2144045402A091C461546435C06F8013D54EA050315
S214404550F1D1A9EB06030E9390E51193002A40F0A3
S2144045609B867D4B18931BF0200F3FF4EFAE0F9DBC
S214404570073525F0070303F108021BF0010F0F92E1
S214404580D3E900457FF4F4AE02235AE51193002A9E
S21440459040F07E864BF0100B1BF0200FA1D00F9DF5
S2144045A0073525F00705D5E90023002A05F108015F
S2144045B01D4673F100030F911446A6DA2D27644278
S2144045C065EB45058DF8777001233DE51193002A8C
S2144045D040F05A860F9D073525F0070303F1080281
S2144045E00F921A6814925B681593159B149D23F0DE
S2144045F00044284621464FF0FF32584BFFF794FAC6
S214404600002840F04883284621464FF0FF32534B5F
S214404610FFF76CFA002840F03E8314A80FC8FFF757
S2144046205BFA002840F02F859DF877704C4E4D4B36
S2144046302BF08000079011980322002108920A91DF
S2144046404728D8BF1E460E9212911FE54BF0080B26
S2144046509AF800305AE4A3F1300000231C461AF8BA
S214404660013B04EB840400EB4404A3F1300009282A
S214404670F5D90D944CE44BF0100B11931BF020032E
S2144046803FF41EAE0F9D073525F0070303F10802E1
S214404690D3E900450F920023D3E41193002A40F05B
S2144046A0E085119A002A3FF4A4AC002301211F465E
S2144046B008918DF8A020CDF81CB08DF877300A937D
S2144046C012930E9128AEE5E4279C35E5119B652BA9
S2144046D040F3A68014A80FC8FFF7F4F9002800F0AE
S2144046E04F81269B204AC8F800200133013401221E
S2144046F0072B27942693C8F8042000F36A8308F112
S21440470008081F9B139A279C934203DB079BDD07F1
S2144047107FF584AD269B19991A9AC8F80020013374
S2144047200C44072BC8F804102794269300F39E8366
S21440473008F10808139B5E1E002E7FF76FAD102E03
S214404740269B0A4D40F3F58122461027DDF830B00F
S2144047500B9C13E03896400024964000FFFFEF7F06
S21440476018964000149640005496400068964000C4
S21440477008F10808103E102E40F3DA81013310325B
S214404780072B2792269388E8A000F1DD25AA21462C
S214404790584604F0E3FA00287FF432AC279A269B6A
S2144047A0C846E7E70D9B089A9F1A002F7FF7E7ACAD
S2144047B0102F269BB64D27DD42462146B0464FF089
S2144047C0100B2E460C9C0B9D04E0103F102F02F160
S2144047D0080215DD01331031072B2791269382E816
S2144047E04008F2DD25AA2946204604F0B7FA0028FC
S2144047F07FF406AC103F102F2799269B4A46E9DCEB
S21440480035460C464646904601333C44072B279493
S214404810269388E8A00000F3328208F10808AEE448
S214404820139B269F012B40F3FE8101370134012361
S214404830072F27942697C8F80060C8F8043000F37E
S214404840038208F10808199A1A9BC8F80030013705
S2144048501444072F27942697C8F8042000F30082B4
S21440486008F1080814A80FC8FFF72CF9139B002876
S21440487040F00181013B013701361C44072F269743
S2144048802794C8F80060C8F8043000F3288108F17F
S21440489008081B9AC8F804200137144421AB072F98
S2144048A027942697C8F800307FF7B6AC25AA0B9910
S2144048B00C9804F053FA00287FF4A2AB279CC84615
S2144048C0ACE425AA0B990C9804F048FA00283FF46B
S2144048D0EEACFFF795BBDDF81CB0012B00F0358140
S2144048E0022B25D1CDF81CB00024002521E625AAB0
S2144048F00B990C9804F032FA00287FF481AB279C81
S214404900C84678E425AA0B990C9804F027FA0028A4
S2144049107FF476AB279CC8461EE425AA0B990C98D4
S21440492004F01CFA00287FF46BAB279CC84623E4AF
S214404930CDF81CB000240025494600E03146E20888
S21440494042EA4572E80804F0070305461446303349
S21440495054EA050201F8013C01F1FF36EED1079A10
S214404960D2077FF5F6AD302B3FF4F3AD0239302356
S21440497006F8013CA9EB01030E930E46FFF77EBBFB
S2144049801F99002940F32F82129B139A9342A8BF87
S2144049901346002B1F460DDD269BC8F800600133EA
S2144049A03C44072B2794C8F80470269300F32083D2
S2144049B008F10808129B002FA8BFDB1B002B1F46E0
S2144049C040F3D780102F269B314D40F3EE81424670
S2144049D02146B0464FF0100B2E460C9C0B9D04E033
S2144049E00832103F102F40F3DC8101331031072B83
S2144049F02791269382E84008F2DD25AA29462046DC
S214404A0004F0ACF900287FF4FBAA2799269B4A4677
S214404A10E7E70A9B0E934E46FFF730BB002D08BFD4
S214404A200A2CC0F090804E46204629460A22002393
S214404A3004F006FC303206F8012D204629460023B5
S214404A400A2204F0FDFB04460D4654EA0503EBD16A
S214404A50A9EB06030E93FFF711BB25AA0B990C98FA
S214404A6004F07CF900287FF4CBAA9DF87770279C49
S214404A70C846FFF761BB5E1E002E7FF70AAF102EBA
S214404A80034D23DD22464FF0100B0C9C07E000BF81
S214404A9068964000103E102E08F1080815DD0137D4
S214404AA01032072F2792269788E82008F2DD25AA9D
S214404AB00B99204604F052F900287FF4A1AA103E34
S214404AC0102E279A269FC846E9DC14460137344400
S214404AD0072F2794269788E860007FF7D8AE25AA48
S214404AE00B990C9804F03AF900287FF489AA279C81
S214404AF0269FC846CDE60F9A146813460433E5173A
S214404B000F9322462B46FCE404321C680F92012386
S214404B100025FFF796BA1C6804330F93002523E45C
S214404B200F990A4604320C680F920025FFF789BA9F
S214404B30144601333444072B2794269388E86000B4
S214404B407FF76AABB2E6DDF81CB0CDF81CB042AEDB
S214404B503034012306F8414D0E93FFF78FBA25AA4D
S214404B600B990C9804F0FAF800287FF449AA279C81
S214404B70C8461F9A139B9A4244DB079BD90741D4E9
S214404B80139B12989A1A1D1A9542A8BF1546002DD7
S214404B900EDD2699C8F80450013106442C440729F6
S214404BA0C8F800602794269100F33B8208F1080875
S214404BB0002DACBF561B1646002E7FF72FAB102E8F
S214404BC0269BB04DB5DD22461027DDF830B00B9C55
S214404BD004E008F10808103E102EA9DD013310321B
S214404BE0072B2792269388E8A000F2DD25AA2146C7
S214404BF0584604F0B3F800287FF402AA279A269B6A
S214404C00C846E8E7269B19981A99C8F80010013359
S214404C100444072B2794C8F80400269300F3F58134
S214404C2008F10808ACE7079BDA073FF5FEAD013709
S214404C3001340123072F27942697C8F80060C8F848
S214404C4004307FF724AE4AE725AA0B990C9804F067
S214404C5085F800287FF4D4A9279C269FC846F2E50D
S214404C6025AA0B990C9804F079F800287FF4C8A977
S214404C70279C269FC846F5E54E46FFF7FFB925AA6E
S214404C800B990C9804F06AF800287FF4B9A9279C81
S214404C90C846FFF774BA149C22462046159C234605
S214404CA02146FEF741FF002840F086820A9B0133EA
S214404CB0119B23F020030E9300F0E281472B00F077
S214404CC01E814BF480730793159B1F1E149B0893FD
S214404CD0BBBF3B4603F1004700232D231093119B97
S214404CE0662B00F0BB81462B00F0DF800E9B089AB7
S214404CF0452B0CBF0A9B0A9D23A820A908BF5D1C14
S214404D00049003911FA802213B4602900195009112
S214404D100C9801F049FA119B672B064640F0E0815B
S214404D201BF0010F00F046827419169A0898179BDC
S214404D303946FEF7C7FE002840F06581239BA34214
S214404D4006D230215A1C23921970239B9C42F9D8D4
S214404D509B1B13930E9B472B00F0E980119B652B02
S214404D6040F3CD81119B662B1F9B129300F09E81D2
S214404D70139B129A1946914200F38A811BF0010F49
S214404D8040F0138222EAE273089367230E9211934F
S214404D90109B002B40F0C4800A939DF87770FFF775
S214404DA075B935460C464646904601333C44072B7B
S214404DB02794269388E8A0003FF7D1AE08F108086C
S214404DC0D7E60F9A136804320F92099A1A60FFF7D3
S214404DD06CB825AA0B990C9803F0C0FF00287FF406
S214404DE00FA9C8468DE4269B274AC8F80020013301
S214404DF001340122072B27942693C8F8042072DC3E
S214404E0008F1080829B9139B1BB9079BD8077FF5FB
S214404E1005AA269B19981A9AC8F80020013302461C
S214404E202244072B2792C8F80400269300F38D816E
S214404E3008F108080029C0F265811399C8F8006097
S214404E4001338C18072B27942693C8F804107FF755
S214404E50E3A92BE50F9A09991368CD170846043243
S214404E6029460F92C3E90001FFF71FB825AA0B9900
S214404E700C9803F073FF00287FF4C2A8279CC8460E
S214404E8058E400BF689640005496400040210C9875
S214404E9002F0DCFD0B9A10601061002800F0EC81F7
S214404EA00B9A40235361FEF7F0BF23A820A90A9C23
S214404EB0049003911FA803210290089A01943B4650
S214404EC000910C9801F070F925460646119B462B3A
S214404ED006EB05047FF429AF3378302B00F072815F
S214404EE01F9D2C4421E725AA0B990C9803F036FF0A
S214404EF000287FF485A81F99279CC84682E70A9B0E
S214404F00002B08BF01230A93DBE630460A9403F0E1
S214404F10B7FE0F950E90CDF81CB00346FFF7FBB9D1
S214404F202D2700238DF877700A93FFF7B0B81F9BA4
S214404F3012931A46033304DB0A9B19469142BFF686
S214404F4017AF119B023B11939DF844308DF8843087
S214404F50129B013B002B1F93BDBF129BC3F1010365
S214404F602D222B22092B8DF8852040F316810DF13A
S214404F7093042046AD4D00E0104685FB0312D9173A
S214404F80C1EBA20101EB8102A3EB420230320929B8
S214404F9000F8012C0B4600F1FF32EDDC30330238CE
S214404FA0D9B2844202F8011C40F25F810DF18600BE
S214404FB0134601E013F8011B00F8011BA342F9D188
S214404FC001339B1A0DF18602134421AA9B1A139AA9
S214404FD01B93012A13440E9340F313810E9B199A98
S214404FE013440E9323EAE373089300231293CFE609
S214404FF025AA0B990C9803F0B1FE00287FF400A870
S214405000279CC846D6E42346A2E625AA0B990C98C8
S21440501003F0A4FE00287EF4F3AF1F9A279CC846F0
S214405020AEE525AA0B990C9803F098FE00287EF46E
S214405030E7AF1F9A139B279C9A1AC846B8E50A9B67
S2144050401296062B28BF06230A96374608930F95D6
S214405050CDF81CB00E93764EFFF718B823A820A9BB
S2144050600A9D049003911FA803210290089A019577
S2144050703B4600910C9801F097F8064644192BE7FA
S21440508006230A931DE62D278DF87770FFF7CEBAD4
S214405090199A139B1344129A0E93002A40F3AA803F
S2144050A023EAE37308936723119371E6002B40F3DA
S2144050B0B2800A9A002A40F093801BF0010F40F01D
S2144050C08F8008930E9363E60A9B08930E930A908C
S2144050D00F95CDF81CB012909DF87770FEF7D6BFAE
S2144050E0119B472B7FF420AE1BF0010F7FF4EEAEF2
S2144050F0239B9B1B13930E9B472B3FF418AF1F9B82
S214405100129321E74F4210314A4D2FDA1024DDF832
S21440511030B004E008F10808103F102F26DD0133B8
S2144051201032072B27922693C8F80050C8F8044040
S214405130F0DD25AA0B99584603F010FE00287EF4B1
S2144051405FAF279A269BC846E6E725AA0B990C9898
S21440515003F004FE00287EF453AF1F99279A269B3F
S214405160C84667E600200A90FEF7D2BE01333A44AE
S214405170072B88E8A0002792269308F108087FF7B7
S2144051805CAE25AA0B990C9803F0E8FD00287EF447
S21440519037AF279A269BC8464FE6303330228DF8E5
S2144051A087308DF8862022AB0FE7129B199A13445E
S2144051B00E9375E7239BCBE51F4E204B9DF87770EB
S2144051C0FFF736BA169A0898179B3946FEF77AFCC8
S2144051D000287FF485AEC5F101051F952C44A4E553
S2144051E0129B199A13440A9A1A4422EAE2730E92C0
S2144051F00893CDE5129B0E9AC3F101031A44134659
S214405200D6E71BF0010312937FF4E8AE0E9B23EA29
S214405210E3730893BCE50A9B13B91BF0010F02D059
S214405220199B0133DFE701234BE700BF67666666DD
S2144052304C96400068964000209640001C964000E1
S2144052400F9D9AF80130286840EAE0700A90284698
S2144052500430A2460F90FEF759BE8DF87710FFF740
S2144052606FB88DF87710FFF71CBA0DF18603ACE6E1
S2144052708DF87710FFF7F3B80C9A0C2313604FF0B5
S214405280FF330993FEF7C5BE8DF87710FFF7A2B936
S2144052908DF87710FFF77EB98DF87710FFF761B974
S2144052A08DF87710FFF71AB92DE9F84F4B6E9C042E
S2144052B093462FD59368126853B30E46074602F1BD
S2144052C0080919E920045FEA9A0817D0043D00242B
S2144052D001E0A04510D0324655F8041F384602F08B
S2144052E035F8431C04F10104F3D10023CBF8083011
S2144052F0CBF80430BDE8F88FDBF808302AF0030A14
S214405300A3EB0A03CBF8083009F10809002BD8D1E3
S2144053100020EAE702F062F90023CBF80830CBF829
S2144053200430BDE8F88F00BF2DE9F04FADB01D4604
S214405330019191460893069018B1836B002B00F0BC
S214405340E080019CB4F90C0081B28B0407D4636EF4
S21440535040F4005123F40053A181636689B20F07DD
S21440536040F1B180019B1B69002B00F0AC8001F03E
S2144053701A010A2900F0B58000230DF1700B0B933B
S214405380119310930493CDF83CB0DA4699F8003068
S2144053904C46FBB1252B02D11CE0252B03D014F83C
S2144053A0013F002BF9D1A4EB09059DB1109B119A42
S2144053B0CAF8009001332A44072BCAF804501192C9
S2144053C010937ADD002A40F08F84049B10922B4481
S2144053D0DA4604932378002B00F0B18300204FF088
S2144053E000038DF8373004F1010962780546064619
S2144053F003464FF0FF3409F10109A2F12001582974
S21440540000F20E83DFE811F037020C030C03EB02C8
S2144054100C030C030C030C030C030C039E02F0025B
S2144054200C03820077020C03CF01D401D401D401CF
S214405430D401D401D401D401D401D4010C030C030B
S2144054400C030C030C030C030C030C030C030C039F
S2144054503F020C030C030C030C030C030C030C035D
S2144054600C030C030C0346020C030C030C030C0346
S2144054700C034A020C030C0352020C030C030C03ED
S2144054800C030C030C030C030C030C030C03E2018B
S214405490F6010C030C030C030703F6010C030C0384
S2144054A091020C03F5028700B102C3020C03C80246
S2144054B00C03BD010C030C03AA020AF1080A049B64
S2144054C02B44049386E7019C0698214600F062FD33
S2144054D0002840F04083A18901F01A010A297FF490
S2144054E04BAF0199B1F90E30002BFFF645AF2B4676
S2144054F04A46069800F018FD049004982DB0BDE882
S214405500F08F01F0AFFE1CE77642089243F00403AA
S21440551099F800206FE7079613F0200240F05A846F
S21440552013F0100140F0F18313F0400200F0ED83D9
S21440553008980A46014604310688089100274FF02D
S21440554000018DF837100025611C00F0758123F0AE
S2144055508001039156EA070140F07381002C40F029
S2144055605683002A40F0B28313F00103059300F0FF
S21440557047840DF1B008302308F8413D059BA3420F
S214405580B8BF234602930DB101330293039B13F039
S2144055900203099302D0029B02330293039B13F04B
S2144055A084030A9340F06382079B029A9D1A002D5B
S2144055B040F35D82102D40F37784109B119AB94ECC
S2144055C0D6461027A2461946069C07E001F1020C73
S2144055D00EF1080E0146103D102D11DD481C10320C
S2144055E0072811928EE8C0001090EFDD002A40F0A8
S2144055F03182103D102D11464FF0010CDE46EDDC99
S21440560054466146F2462A4407291192CAF8006079
S214405610CAF80450109100F3E6829DF837500AF11C
S214405620080A481C002D40F02A82099B002B00F0F7
S214405630448202320EA902230728119210908AE86B
S2144056400A0040F33682002A40F08B830A9B802B68
S2144056504FF001001146DA4640F03382079B029D28
S2144056605E1B002E40F32D82102E8F4D40F32F846C
S214405670D4461027A246069C07E001F1020E0CF124
S214405680080C0146103E102E11DD481C103207282B
S21440569011928CE8A0001090EFDD002A40F0968230
S2144056A0103E102E4FF0010E1146DC46EDDC5446FF
S2144056B0E2463244BEF1070F11928AE86000CDF808
S2144056C040E000F35B83059BE41A002C0AF1080ACD
S2144056D00EF10100714600F3F9810599CAF8008081
S2144056E00A4407281192CAF80410109040F35582D5
S2144056F0002A40F0EE82039B1092580738D5079B4D
S21440570002995C1A002C40F3BA82DA46102C40F319
S214405710DA831099634E069FDDF80480102506E074
S214405720881C0AF1080A1946103C102C13DD4B1C45
S2144057301032072B1192CAF80060CAF80450109332
S214405740EEDD002A40F00B82103C102C4FF001009A
S2144057501146DA46EBDC224407281192CAF800606C
S214405760CAF80440109040F32382002A40F0678332
S214405770049B079A02998A42ACBF9B185B18049315
S2144057801FE207969E0600F119830899DD060A4631
S21440579000F1B582580640F1B2820E8804310027E7
S2144057A001220891CBE643F0800399F8002022E6D8
S2144057B0A2F13001002619F8012B06EB860601EB14
S2144057C04606A2F130010929F5D916E6089907964A
S2144057D00A688DF848204FF000000A468DF83700DA
S2144057E0043201200290089205900DF14808039378
S2144057F00024CBE60796002840F082839E0600F100
S214405800D182DD0600F18D82580640F18A82089DDD
S214405810B5F900602A46F7170432304639460892F2
S214405820002871F10002C0F2EE82611C9DF83750EC
S2144058304FF001027FF48BAE56EA070100F0E88194
S2144058400393012A00F02582022A40F0F5810B9846
S214405850D846330906F00F0143EA07733A091E4655
S2144058601746435C08F8013D56EA0703F1D1ABEB17
S2144058700803059382E699F80020002D7FF4BBAD1F
S21440588001202025B7E50796002840F0368343F0F0
S2144058901003B3E7079643F010033DE6079643F040
S2144058A010036FE7789640008896400007960028D9
S2144058B040F02C83B0490B919F0600F197820898E0
S2144058C0DE06014600F128825D0640F1258204315D
